:020000040800F2
:1000000058A70020F90F0108750E01082F7200088B
:10001000770E0108790E01087B0E01080000000030
:100020000000000000000000000000007D0E01083C
:100030007F0E0108000000007D7100089DF7000898
:100040004D10010851100108551001085910010800
:100050005D100108611001086510010869100108B0
:100060006D10010871100108751001087910010860
:100070007D10010881100108851001088910010810
:100080008D100108911001089510010899100108C0
:100090009D100108A1100108A5100108A910010870
:1000A000AD100108B1100108B5100108B910010820
:1000B000BD100108C1100108C5100108C9100108D0
:1000C000CD100108D1100108D5100108D910010880
:1000D000DD100108E1100108810E0108870E0108FA
:1000E000950E0108E5100108E9100108ED1001085E
:1000F000F1100108F5100108F910010800000000D6
:10010000FD1001080111010805110108091101087C
:100110000D1101081111010815110108191101082B
:100120001D110108211101082511010829110108DB
:100130002D1101083111010835110108391101088B
:100140003D1101084111010845110108491101083B
:100150004D110108511101086FF6000855110108F1
:10016000591101085D1101086111010865110108AB
:10017000691101086D110108000000000000000075
:100180007111010875110108791101087D1101082B
:100190008111010889110108000000000000000021
:1001A0000000000000000000851101088D11010809
:1001B00091110108951101089911010800F5E070ED
:1001C0000268914203D343681A44914202D3806883
:1001D0000028F5D17047DFF86C17086890B94FF424
:1001E000805048604FF480324FF0FF30C8600861A3
:1001F0000420DFF854378A604861C3F8BC01DFF897
:100200004C0708600120704701F1080313F0070F45
:100210000EBF0023C3F1080303F007031944D21AE9
:100220008161C26042F001034B60091D4FF0280C50
:1002300041F802C0DFF80C271369C36170472DE94C
:10024000FC4B074601F1080010F0070F0FBF89466D
:10025000C0F1080000F0070001EB000902F10801FD
:1002600011F0070F06D002F10800C0F1080000F0FD
:10027000070002441546A5EB090009EB0306A0EBB5
:10028000030B43F00303C9F80430AE4228BF01F06A
:1002900025FA2879C10758BF01F020FABBF1100FE9
:1002A00038BF01F01BFAB869854208D1F9688B4460
:1002B000C7F80CB0BE614BF00100706051E1786985
:1002C00085420AD1B9688B44C7F808B07E614BF00B
:1002D0000100706046F80BB043E1686800F003016C
:1002E000012940F0AC80C008C0000190C0081F2860
:1002F00039D8AC68D5F80C800090454508BF01F0AE
:10030000EDF9A54208BF01F0E9F968680099C00855
:10031000C000B0EBC10F18BF01F0E0F9009907F180
:10032000280000EBC100844206D039698C42C0F03D
:100330008180E268AA427DD1A04506D10098396843
:10034000012383409943396076E0804506D03969BE
:1003500088456FD3D8F80800A8426BD1C4F80C8048
:10036000C8F8084068E0EC68D5F81880AC420CD0BA
:10037000A8683969884223D3C268AA4204BFA16829
:10038000A9421DD1C460A0601CE005F114010C68F5
:1003900034B905F110010C68A4B101E011460C68F4
:1003A00004F114021068002802BF04F11002106862
:1003B0000028F3D13869814202D300220A6001E0AB
:1003C00001F08CF9B8F1000F36D0E96907F59870A3
:1003D00000EB81000268954208D10460A4B9E86985
:1003E0007968012282409143796025E0386980452F
:1003F00008D3D8F81010A94214BFC8F81440C8F8A0
:10040000104001E001F06AF9B4B139698C4211D3AE
:10041000C4F81880286928B1884226BF2061846109
:1004200001F05CF9686938B13969884202D36061CA
:10043000846101E001F052F901996D188B446968FB
:100440004908490069604BF0010070604FEADB0425
:1004500046F80BB01F2C23D807F1280000EBC40886
:100460004546BBF1100F38BF01F038F9386820FA63
:1004700004F1CA0705D4012101FA04F404433C60E5
:1004800007E0D8F80800396988422CBF054601F01A
:1004900025F9C8F80860EE60B560C6F80C8060E029
:1004A0005FEA1B2008BF002123D0B0F5803F28BFA2
:1004B0001F211ED2A0F58072120C02F0080290409B
:1004C000A0F58051090C01F004018840A0F580439B
:1004D0001B0CC2F10E0203F00203521AD21A98400A
:1004E00002EBD032D01D2BFA00F101F0010101EB3B
:1004F0004201F161002307F59872736102EB8100FC
:1005000033617A6822FA01F3DC0707D4012303FA86
:1005100001F1114379600660B0611DE002681F2996
:100520001DBF4908C1F119010BFA01F1594600E05C
:1005300002465068C008C000584516D002F11003AA
:10054000C80F03EB8003490018680028F0D1386910
:10055000834204D31E60B261F660B66001E001F030
:10056000BDF809F10800BDE8F68B396990688A4248
:1005700028BF8842F3D3C6609660B060F260002066
:10058000B061EEE72DE9FE4F04468B46A5692E4685
:10059000904699463146FFF711FE0268416802EB2A
:1005A000010AAAF1270111F007000EBF0021C1F1D5
:1005B000080101F007010AEB0100A0F12F0706F185
:1005C00010018F4238BF374607F11802002101920F
:1005D0000091A8F1280259462046FFF715FE07F1C1
:1005E000080010F0070F18BF01F078F81B207860A2
:1005F00007F1080104F5E07090E80C5081E80C5018
:10060000C0F800B0C0F80480C0F80C9081600722E8
:100610000198009900E0001D491C00F108035345B2
:100620004260F8D30129D8BF01F058F8B74200F072
:100630009580BF1B301D321DC15949084900D15159
:1006400047F0010070604FEAD70BF751BBF11F0F65
:1006500021D804EBCB0000F12805A846102F38BFA5
:1006600001F03CF8206820FA0BF1CA0705D40121FB
:1006700001FA0BF10843206006E0A868216988426E
:100680002CBF804601F02AF8AE60C8F80C60C6F8AE
:100690000880F5606FE0380A08BF002123D0B0F56C
:1006A000803F28BF1F211ED2A0F58072120C02F0DD
:1006B00008029040A0F58051090C01F00401884027
:1006C000A0F580431B0CC2F10E0203F00203521A84
:1006D000D21A984002EBD032D01D27FA00F101F077
:1006E000010101EB420104EB8102002302F5987045
:1006F000F16173613361626822FA01F3DB0707D4A9
:10070000012303FA01F1114361600660B0611DE04D
:1007100002681F291DBF4908C1F1190107FA01F13B
:10072000394600E002465068C008C000B84216D002
:1007300002F11003C80F03EB80034900186800287A
:10074000F0D12069834204D31E60B261F660B560C7
:1007500011E003B0BDE8F04F00F0C0BF0BE021692D
:1007600090688A4228BF8842F3D3C6609560B06023
:10077000F2600020B06103B0BDE8F08F2DE9F041D8
:10078000704F05463868884608B9FFF724FDB968F8
:1007900001EB08002F30491E20EA010188457DD277
:1007A00005F5D876B06828B1326889188A4275D2C2
:1007B000884273D300F0D2FF01001CBF0C6811F116
:1007C000010F6BD03068201805F5D872306053687F
:1007D000984238BF18467060A86960BB286908B1A4
:1007E000814200D22961316174610020F0614FF0D3
:1007F000FF303A686A62286205F128020020D26060
:10080000926002F1080757611761801C103220289E
:10081000F5D34D48854208BFA4F1280228D055F8E9
:10082000040CC00805EBC002A2F108000A19121A54
:10083000283A01461CE005F5E070024600E09268A7
:100840007AB3136857681F44B942F8D1137B1F0766
:1008500027D4AB691768BB4223D3D2F804C06744DE
:10086000BB421ED2A444C2F804C0E868A969221899
:100870002846FFF7C9FC1FE08068C0B103689342B7
:10088000FAD1027B130712D4026801604368E418AE
:10089000446043462846BDE8F041D0E40020BDE86E
:1008A000F0812A69914238BF29610A19E5E70023DE
:1008B00022462846FFF766FEE8688045EED2A0EBA8
:1008C0000800A969E86001EB0802AA6140F0010094
:1008D000506048F00300486001F10800BDE8F08175
:1008E00030B4184B1A6882B94FF480525A604FF4F2
:1008F00080344FF0FF32DA601A610422124D9C609E
:100900005A61C5F8BC21114A1A6011F1400F17D283
:100910008269AAB1C368283199420BD200F5E0710F
:100920000C68A24203D34D682C44A24202D38968CA
:100930000029F5D1C16999423CBF4FF0FF32C26135
:1009400000F0C8BEF09E0020109700206859883C37
:100950002DE9F84F00258946090AC9F1000B08BFA7
:10096000002323D0B1F5803F28BF1F231ED2A1F55D
:100970008072120C02F008029140A1F580531B0C0A
:1009800003F004039940A1F58044240CC2F10E0247
:1009900004F00204D21A121BA14002EBD132D11D85
:1009A00029FA01F303F0010303EB4203074607F5BD
:1009B000987858F8230030B31F2B0FBF4C465C08C3
:1009C000C4F1190409FA04F4AC46594600E0640085
:1009D0004268D208D200A2EB09028A4203D2110077
:1009E000054600F06981426910304FEAD47B50F827
:1009F0002B00002A1CBF824294460028E7D18B4678
:100A00006046B0BBBDBB012202FA03F35B00584253
:100A1000796803430B4000F04E81584203405B1E4F
:100A2000180B00F01000C340590901F00801CB4039
:100A30009A0802F00402D3405C0804F0020408188B
:100A4000E3401018C3F3400620183044F3401B184D
:100A500058F823000DE008464168C908C900A1EB19
:100A6000090159453CBF8B46054601690029F2D171
:100A700040690028F0D1002D00F01D81B868A0EB7E
:100A80000900834580F0178139698D42C0F01181DA
:100A90006868C008C00009EB0B01884218BF00F06D
:100AA0001DFE05EB0906B54280F00381EC68D5F820
:100AB00018A0AC420CD0A8683969884223D3C26818
:100AC000AA4204BFA168A9421DD1C460A0601CE075
:100AD00005F114010C6834B905F110010C68A4B1DA
:100AE00001E011460C6804F114021068002802BFEE
:100AF00004F1100210680028F3D13869814202D352
:100B000000220A6001E000F0E9FDBAF1000F36D0E2
:100B1000E86908EB800001688D4209D1046020007B
:100B200014D1E8697968012282409143796026E016
:100B30003869824508D3DAF81010A94214BFCAF800
:100B40001440CAF8104001E000F0C8FDBCB138699B
:100B5000844212D3C4F818A0286930B13969884298
:100B600026BF2061846100F0B9FD686938B1396938
:100B7000884202D36061846101E000F0AFFDBBF107
:100B8000100F0CD2D94449F00300291D6860281DBC
:100B900051F8092042F0010240F8092088E049F0AC
:100BA000030068604BF0010070604FEADB0046F81C
:100BB0000BB01F281DD807EBC00101F128043968CC
:100BC00021FA00F2D307A34605D4012202FA00F06D
:100BD0000843386006E0A068396988422CBF834624
:100BE00000F07CFDA660CBF80C60C6F808B0F4609D
:100BF0005EE05FEA1B2008BF002123D0B0F5803FF4
:100C000028BF1F211ED2A0F58072120C02F008022C
:100C10009040A0F58051090C01F004018840A0F536
:100C200080431B0CC2F10E0203F00203521AD21AC7
:100C3000984002EBD032D01D2BFA00F101F00101F7
:100C400001EB4201F16100227261326108EB810027
:100C50007A6822FA01F4E30707D4012404FA01F1C7
:100C6000114379600660B0611DE002681F291DBF55
:100C70004908C1F119010BFA01F1594600E0024699
:100C80005068C008C000584518D002F11003C80FC2
:100C900003EB8003490018680028F0D138698342CB
:100CA00004D31E60B261F660B66001E000F016FD8C
:100CB00014E100F013FD0EE18B46A2E6396990685D
:100CC0008A4228BF8842F1D3C6609660B060F26065
:100CD0000020B061ECE72DE9F84F064688467168C0
:100CE00048420140491E080B00F01000C1404A096B
:100CF00002F00802D1408B0803F00403D9404D08EC
:100D000005F002051018E9401818C1F3400428182E
:100D100006F5987A2044E14009185AF821104868ED
:100D2000C008C0000D46A0EB080909E0014648686C
:100D3000C008C000A0EB080048453CBF81460D46F6
:100D400008690028F2D149690029F0D1306985424B
:100D5000C0F0BF806968C90808EB090BC900594594
:100D600018BF00F0BBFC05EB08008542009080F046
:100D7000B080EF68AC69AF420CD0A8683169884296
:100D800023D3C268AA4204BFB968A9421DD1C76073
:100D9000B8601CE005F114010F6837B905F11001C6
:100DA0000F68A7B101E011460F6807F1140210683F
:100DB000002802BF07F1100210680028F3D1306943
:100DC000814202D300220A6001E000F087FC002C7F
:100DD00031D0E8690AEB800001688D4208D10760D4
:100DE0008FB9E8697168012282409143716022E005
:100DF0003069844205D32169A94214BF6761276124
:100E000001E000F06BFCB7B13069874211D3BC61DF
:100E1000286930B13169884226BF3861876100F0A6
:100E20005DFC686938B13169884202D378618761B5
:100E300001E000F053FCB9F1100F0BD24BF00300AE
:100E4000291D6860281D51F80B2042F0010240F86E
:100E50000B203DE048F003012A1D696049F00100C4
:100E600042F80800009941F80990D6F808804FEA46
:100E7000D80BBBF1200F28BF00F030FCB8F1000FF9
:100E800022D006EBCB00776900F12804A246B8F126
:100E9000100F38BF00F022FC306820FA0BF1CA07AF
:100EA00005D4012101FA0BF10843306006E0A06887
:100EB000316988422CBF824600F010FCA760CAF856
:100EC0000C70C7F808A0FC60C6F808900098706124
:100ED00004E000F003FC0020BDE8F28F05F10800FB
:100EE000BDE8F28F2DE9FE4F0546AFF30080F52DEA
:100EF000DFF8DC6780F004810B2D31BF10250B3546
:100F0000ED08ED003068EC08E04010F0030F46D02B
:100F1000C04300F00100041906F1280000EBC408EA
:100F2000E700D8F808506868C008C000B84218BF89
:100F300000F0D4FBD5F80890454508BF00F0CEFB83
:100F40004D4508BF00F0CAFB6868C008C000B84241
:100F500018BF00F0C3FBC84507D13068012101FA72
:100F600004F420EA040434600DE03069814508D3BC
:100F7000D9F80C10A94204D1C8F80890C9F80C801F
:100F800001E000F0ABFB47F00300291D6860281D5D
:100F9000CA5942F00102C25105F10804F8E0B168F3
:100FA000A94280F0BE80002800F0A1804FF0010827
:100FB00008FA04F1490000FA04F4484201430C40E5
:100FC00060420440641E200B00F01000C440610920
:100FD00001F00801CC40A20802F00402D4406308EA
:100FE00003F002030818DC401018C4F34007181877
:100FF0003818FC40241806F1280000EBC40AE7006A
:10100000DAF80890D9F80400C008C000B84218BF48
:1010100000F064FBD9F808B0D14508BF00F05EFBD2
:10102000D94508BF00F05AFBD9F80400C008C00039
:10103000B84218BF00F052FBDA4506D1306808FA12
:1010400004F420EA040434600DE031698B4508D3D0
:10105000DBF80C00484504D1CAF808B0CBF80CA066
:1010600001E000F03BFB7F1B45F0030009F10402A7
:10107000C9F8040047F00101515109EB0502019242
:10108000D751B4684FEAD40ABAF1200F28BF00F054
:1010900025FB34B3CDF800A006F12800756900EBFC
:1010A000CA0AD346102C38BF00F018FB31680098EC
:1010B00021FA00F2D30704D408FA00F008433060A4
:1010C00007E0DAF80800316988422CBF834600F057
:1010D00005FBCAF80850CBF80C50C5F808B0C5F8A5
:1010E0000CA0B76009F108040198706150E07068C5
:1010F000C0B329463046FFF7EEFD040011D047E0AB
:1011000015F1400F28BF4FF0FF350AD20B35ED081F
:101110007068ED0028B129463046FFF719FC04003D
:1011200036D1B068A8421DD3411B726910290AD379
:1011300050197061B16041F001034360415045F0C6
:10114000030555600BE00021B1607161131D40F093
:1011500003015160111D1C5844F001040C5002F1B0
:10116000080415E0F06885420DD2401BB169F060BB
:101170004A19B26140F00100506045F003054D602E
:1011800001F1080404E029463046FFF7F7FA044667
:10119000AFF300802046FFF7EEBA002800D1704779
:1011A0002DE9F047A0F10805AFF30080DFF82065D6
:1011B00031698D42C0F05982686800F00302012A4B
:1011C00000F05382C2084FEAC209C20705EB0908C2
:1011D00039D42C6810F0030F00F0498260420544B6
:1011E0008D42A144C0F041827069854200F0C68002
:1011F000E408202C5ED2D5F80CA0AF68554508BF96
:1012000000F06CFABD4208BF00F068FA6868C008D8
:10121000C000B0EBC40F18BF00F060FA06F1280060
:1012200000EBC400874205D031698F423FD3FA6892
:10123000AA423CD1BA452CD13068012101FA04F40C
:1012400020EA04043460454580F00F82D8F8044059
:10125000E00740F10A82A10700F16881B06980458A
:1012600040F09F80F168B5618944C6F80C9049F060
:101270000100686071698D4202D100207061B06028
:10128000F069484580F0F38100213046FFF728FBE4
:10129000EDE1824506D03069824508D3DAF80810BE
:1012A000A94204D1C7F80CA0CAF80870CBE700F037
:1012B00015FAC8E7EC68AF69AC420BD0A868884261
:1012C00022D3C168A94204BFA268AA421CD1C4604B
:1012D000A0601BE005F11402146834B905F1100296
:1012E00014689CB101E01A46146804F114031868EC
:1012F000002802BF04F1100318680028F3D18A42C5
:1013000002D30021116001E000F0E8F9002F9AD02B
:10131000E96906F5987000EB81000268954209D1F1
:101320000460200011D1E869716801228240914374
:10133000716088E73069874205D33969A94214BFD3
:101340007C613C6101E000F0C9F9002C3FF47BAF07
:1013500031698C42ABD3A761286928B1884226BF86
:101360002061846100F0BAF9686900283FF46BAF2E
:10137000316988429BD36061846164E798F8040016
:1013800000F0030003287FF45EAFC6F8089049F030
:101390000101D8F8040040084000C8F80400696062
:1013A0000AE0706980450AD1B16875618944C6F860
:1013B000089049F00100686045F8099057E1E40899
:1013C000E400A144E408202C3AD2D8F80CA0D8F8C4
:1013D0000870D04508BF00F081F9B84508BF00F09B
:1013E0007DF9D8F80400C008C000B0EBC40F18BFE6
:1013F00000F074F906F1280000EBC400874207D022
:1014000031698F42C0F08580FA68424540F08180A2
:10141000BA4507D13068012101FA04F420EA040436
:10142000346078E0824506D03069824571D3DAF8BD
:10143000081041456DD1C7F80CA0CAF808706AE0E1
:10144000D8F80C40D8F8187044450DD0D8F80800EA
:101450003169884223D3C268424504BFA16841452F
:101460001DD1C460A0601CE008F114010C6834B9FF
:1014700008F110010C68A4B101E011460C6804F1F8
:1014800014021068002802BF04F11002106800283E
:10149000F3D13069814202D300220A6001E000F0FA
:1014A0001DF9002F37D0D8F81C1006F5987000EB06
:1014B0008100026890450AD10460200012D1D8F85A
:1014C0001C007168012282409143716023E0306901
:1014D000874205D33969414514BF7C613C6101E015
:1014E00000F0FCF8BCB131698C4212D3A761D8F886
:1014F000100028B1884226BF2061846100F0EEF818
:10150000D8F8140038B13169884202D3606184612F
:1015100001E000F0E3F849F00100686045F8099047
:1015200071698D420BD1C6F80890A0E06408640090
:10153000C8F8044049F00100686045F809904FEA96
:10154000D907202F22D206F1280000EBC704A046BD
:10155000B9F1100F38BF00F0C1F8306820FA07F178
:10156000CA0705D4012101FA07F70743376006E0EF
:10157000A068316988422CBF804600F0AFF8A560B2
:10158000C8F80C50C5F80880EC6070E05FEA1920DC
:1015900008BF002123D0B0F5803F28BF1F211ED2F5
:1015A000A0F58072120C02F008029040A0F5805164
:1015B000090C01F004018840A0F580431B0CC2F126
:1015C0000E0203F00203521AD21A984002EBD032F4
:1015D000D01D29FA00F101F0010101EB420106F5ED
:1015E0009872002302EB8100E9616B612B617268E4
:1015F00022FA01F3DC0707D4012303FA01F11143B6
:1016000071600560A8611DE002681F291DBF4908BF
:10161000C1F1190109FA01F1494600E0024650689A
:10162000C008C000484526D002F11003C80F03EBE4
:101630008003490018680028F0D13069834204D340
:101640001D60AA61ED60AD6001E000F047F8306A0E
:10165000401E30620BD1D6F8C80100E08068002837
:10166000FCD14FF0FF30306201E000F037F8AFF30B
:101670000080BDE8F087316990688A4228BF8842BF
:10168000E3D3C5609560A860EA600020A861DEE74A
:1016900038B5002558B141EA0002120C01FB00F5F3
:1016A00012041EBFB5FBF0F088424FF0FF3528460C
:1016B000FFF718FC04001CBF14F8040C10F0030F13
:1016C00003D02946204600F05FF8204632BD0000D6
:1016D0001097002030BC002070470000012000F06F
:1016E00073B8F0B40246106895681318506803EB9D
:1016F0005004C0071DD54D441BE013F8017B05F8CD
:10170000017B491EF9D1A0B1B60813F8011B06F000
:101710000306032E08BF13F8016B01EB06214942B3
:10172000801C294405D011F8016B05F8016B401E9F
:10173000F9D1A3420ED013F8016B16F0030104BFD8
:1017400013F8011BC91C30090F28DAD113F8010B5B
:101750000F30D6E7F0BC02F10C007047074908686B
:1017600008B1002070470648C008C000086005495D
:10177000C908C900091A0160704700BF509F0020C6
:101780005FA7002058AF0020002200F027B830B437
:10179000002513E050F8042BD30744BFA9F101033F
:1017A0009A18091F042942F8045BFAD213468C07E1
:1017B00044BF15809B1CC90748BF1D7050F8041B0F
:1017C0000029E7D130BC704780B500F01FF8024A0D
:1017D00011001820ABBEFBE7260002004018491C90
:1017E0001CBFB1F1010100F8012DF9D17047B1F52D
:1017F000807F02D34FF0FF307047017001207047A7
:101800000078401E8041C043C00F704780B500F093
:1018100015F802000023DB431068984204D0110041
:101820000220ABBE002010605068984204D0111D09
:101830000220ABBE0020506001BD0000014870478F
:1018400000000000CC01002038B5040009D004F1EC
:101850007C05697809B900F01EF800F021F801282C
:1018600001D1012032BDA06A08B100F02AF800F0D1
:101870000AF821F02A01FFE7816000F01BF8BDE8BB
:10188000324001F014B82068416821F49041416071
:1018900020688168704700202870204601F034BA23
:1018A00024216970206802685208520002602046B4
:1018B00000F068BA2068016841F00101016020462B
:1018C0007047204600F090BF2DE9FC47074607F11E
:1018D0007C058A46687820281446984640D1BAF19B
:1018E000000F14BF002C01203BD02878012837D0EE
:1018F000012129700020686021226A7007F15406D6
:1019000001F074FD34808146748014E039681AF85F
:10191000010B08850CE0B868B0F5805F04BF38693A
:101920000028F3D13AF8021B3868C1F30801018599
:101930007088411E71804B467088CDF80080002869
:1019400011D000228021384600F0DEFF0028E2D0CE
:10195000032006E02020687000212970002000E0AC
:101960000220BDE8F68700224021384600F0CCFF77
:101970000028EFD0ECE72DE9FC47074607F17C058E
:101980008A46A87820281446984653D1BAF1000F09
:1019900014BF002C01204ED0287801284AD0012104
:1019A0002970002068602222AA7007F15C0601F00D
:1019B0001DFD348081467480FF21B868B0F5805FDA
:1019C00004D1386968B940F2FF110AE018B93869E2
:1019D00038B17F2008E0B0F1805F06D1386910B9D6
:1019E0007F21B18001E03F20B080B48814E03868E6
:1019F000818C21400AF8011B0BE0B868B0F5805FCC
:101A000004BF38690028F2D13968888C20402AF850
:101A1000020B7188481E7080708870B1CDF800800C
:101A20004B4600222021384600F06EFF0028E4D00B
:101A3000032000E00220BDE8F6872020A8700021E6
:101A400029700020F7E730B500F17C035C78202C8A
:101A500041D109B1140001D1012030BD1C78012C05
:101A600039D001251D7000F1540401652280628087
:101A70000021E16159602121597022698168B2F128
:101A8000005F13D1B1F5805F04BF0169002907BF72
:101A9000DFF8BC22E261DFF8BC12E16100221A70BB
:101AA0000068816841F40001816012E0B1F5805F57
:101AB00004BF0169002907BFDFF89C22E261DFF85B
:101AC0009C12E16100221A700068016841F08001F7
:101AD0000160002030BD022030BD30B500F17C0334
:101AE0009C78202C69D109B1140001D1012030BDAE
:101AF0001C78012C61D001251D7000F15C0481650A
:101B00002280628000212161FF258168B1F5805F1C
:101B100004D1016969B940F2FF150AE019B90169F8
:101B200039B17F2108E0B1F1805F06D1016911B9B7
:101B30007F25A58001E03F21A18000255D60222155
:101B4000997001688D6845F001058D60A168B1F15B
:101B5000005F1CD1A1898A4219D38268B2F5805FE7
:101B600004BF0169002907BFDFF8F4212261DFF813
:101B7000F411216100221A7001680B6843F480732C
:101B80000B600068816841F08051816013E08168DA
:101B9000B1F5805F04BF0169002907BFDFF8C821E4
:101BA0002261DFF8C811216100221A700068016803
:101BB00041F490710160002030BD022030BD2068EA
:101BC00081684A067047F8B504462568E9692A68BD
:101BD000AB6811F00F000CD188067CD5960601D4B5
:101BE000D80078D5E16E002974D02046BDE8F440D5
:101BF00008475F48034208BF12F4907F6BD0CE07BE
:101C000009D5D70507D501262E62D4F8805045F0B6
:101C10000105C4F880508D070AD5DE0708D527686E
:101C200002253D62D4F8805045F00405C4F8805088
:101C30004D070AD5DE0708D5276804253D62D4F88C
:101C4000805045F00205C4F880500D070CD596066B
:101C500001D4034208D0256808202862D4F8800007
:101C600040F00800C4F88000D4F8800000286ED04E
:101C7000880607D5910601D4D80003D5E16E09B1D5
:101C800020468847D4F88000010703D42068816883
:101C9000480619D5204600F066FEFFF790FF0ED5E6
:101CA00000F06AF858B133498163A06F01F0ECFC91
:101CB00000284CD0A06F816BBDE8F4400847204657
:101CC000BDE8F24001F014BF204601F011FF0020F2
:101CD000C4F88000F1BDC80209D55E0207D54FF4F3
:101CE000801028622046BDE8F24001F09BBF080644
:101CF00009D5160601D4180205D5216F39B320463F
:101D0000BDE8F440084748060FD553060DD52868AE
:101D100020F040002860202184F87D1000202067FA
:101D20002046BDE8F24001F0C3BE080206D55300CC
:101D300004D52046BDE8F24001F075BFC80148BF98
:101D4000002A04D52046BDE8F24001F06DBFF1BD88
:101D5000912A0008532A0008252A0008FD290008B6
:101D6000112C0008A12B0008472B0008E92A0008C5
:101D700001000010ED290008816821F04001816018
:101D8000A06F70472DE9F84F0446DFF83C1A206831
:101D9000DFF838BA0090024610251368A0680B409F
:101DA0002169034360690B43E1690343606E0B43A0
:101DB00003431360002600984168E068009A21F40C
:101DC000405101435160B1460098A169DFF8002AF3
:101DD0009042009A1CBF206A01439368DFF8F4091F
:101DE0000340194391604FF4004A0098C16A606A49
:101DF000009A090940EA0111D1624FF48077DDF8B9
:101E00000080D8454FF400704FF480614FF40062B9
:101E10004FF480534FF4005C4FF4804E2BD1DFF829
:101E2000B889D8F800B00BF0030BBBF1030F64D8EE
:101E3000DFE80BF0024C35620125D4F81CB0BBF58D
:101E4000004F4FF6F07840F0958365B1012D00F01A
:101E5000A182022D00F0CE82042D00F00C83082D0B
:101E600000F0418377E302F03EFA0146606A002801
:101E700040F065828CE2DFF864B9D84511D1DFF813
:101E80005889D8F8008018F00C0875D0B8F1040F04
:101E90001CD0B8F1080F02D0B8F10C0F14E00225E5
:101EA0002BE0DFF83CB9D84512D1DFF82C89D8F8FF
:101EB000008018F030085FD0B8F1100F06D0B8F1EC
:101EC000200FECD0B8F1300F16D016E0042514E046
:101ED000DFF810B9D84527D1DFF8FC88D8F80080A2
:101EE00018F0C00848D0B8F1400FEFD0B8F1800F1B
:101EF000D5D0B8F1C00F00D10825DDF80080DFF89B
:101F0000D0B8D84599D1A84645B1022D73D0042D3B
:101F100000F0AD80082D00F0DD806AE002F0E3F90A
:101F20000146606A50BB55E0DFF85CBAD8450FD176
:101F3000DFF8A488D8F8008018F440781CD0B8F5F1
:101F4000807FC3D0B8F5007FA9D0B8F5407FBBE74C
:101F5000DFF87CB8D845D0D1DFF87C88D8F800808D
:101F600018F4406808D0B8F5806FAFD0B8F5006FAE
:101F700095D0B8F5406FA7E70025BEE7012808BF58
:101F8000022028D0022808BF042024D0032808BF3C
:101F9000062020D0042808BF08201CD0052808BF30
:101FA0000A2018D0062808BF0C2014D0072808BF24
:101FB000102010D0082808BF20200CD0092808BF06
:101FC000402008D00A2808BF802004D00B2808BF72
:101FD000384600D00120B1FBF0F0002800F0E88383
:101FE000626802EB4201884203D31303834280F00C
:101FF000A18000F0DBBB606AB0B3012808BFDFF846
:102000008C09EDD0022808BFDFF88409E8D0032846
:1020100008BFDFF88009E3D0042808BFDFF878099B
:10202000DED0052808BFDFF87409D9D0062808BF1C
:10203000DFF86C09D4D0072808BFDFF86809CFD0D3
:10204000082808BFDFF86009CAD0092808BFDFF8F0
:102050005C09C5D00A2808BFDFF85409C0D00B2896
:1020600008BF4FF22440BBD0DFF84809B8E702F0C0
:10207000EFF80146606A0028ACD0012808BF0220B2
:10208000A9D0022808BF0420A5D0032808BF062035
:10209000A1D0042808BF08209DD0052808BF0A2029
:1020A00099D0062808BF0C2095D0072808BF10201B
:1020B00091D0082808BF20208DD0092808BF4020D3
:1020C00089D00A2808BF802085D00B2808BF384651
:1020D000FAD07FE7656A5DB3012D08BF704628D04E
:1020E000022D08BF604624D0032D08BF41F2555091
:1020F0001FD0042D08BF18461BD0052D08BF40F681
:10210000CC4016D0062D08BF40F6AA2011D0072DCE
:1021100008BF10460DD0082D0CBF0846092D08D069
:102120000A2D08BF384604D00B2D08BF802000D0F0
:10213000504655E7B8F1000F0BD0B8F1020F38D078
:10214000B8F1040F00F07280B8F1080F00F0A6801B
:10215000E9E002F0C8F80146606A40B3012808BF10
:1021600002271ED0022808BF04271AD0032808BF60
:10217000062716D0042808BF082712D0052808BF54
:102180000A270ED0062808BF0C270AD0072808BF48
:10219000102706D0082808BF202702D0092808BF2A
:1021A000402772D00A280CBF80270B286DD001274A
:1021B0006BE0606A002836D0012808BFDFF8F867B6
:1021C0002BD0022808BFDFF8F46726D0032808BF09
:1021D000DFF8EC6721D0042808BFDFF8E8671CD0DF
:1021E000052808BFDFF8E06717D0062808BFDFF82A
:1021F000DC6712D0072808BFDFF8D4670DD00828A5
:1022000008BFDFF8D06708D0092808BFDFF8E86901
:1022100003D00A2808BFDFF8E4697AD00B2808BF8A
:10222000DFF8906775D0DFF8D86972E002F010F837
:102230000146606A40B3012808BF022725D0022862
:1022400008BF042721D0032808BF06271DD0042873
:1022500008BF082719D0052808BF0A2715D0062867
:1022600008BF0C2711D0072808BF10270DD0082859
:1022700008BF202709D0092808BF402705D00A2811
:102280000CBF80270B2800D001276268B1FBF7F64E
:10229000370E5008002110EB06203EE0606A00284F
:1022A00035D0012808BF4FF4800632D0022808BF7D
:1022B0004FF400162DD0032808BFDFF8FC6928D0A2
:1022C000042808BF4FF4801623D0052808BFDFF884
:1022D000EC691ED0062808BFDFF8E46919D007288A
:1022E00008BF4FF4002614D0082808BF4FF48026FA
:1022F0000FD0092808BF4FF400360AD00A2808BFBB
:102300004FF4803605D00B2808BF564601D04FF455
:1023100000060027002116EB52007941002302F04D
:102320004BF8064601E04FF00109A6F54070DFF8D2
:102330009419884280F03A822268D66038E20128F7
:1023400008BF022725D0022808BF042721D0032870
:1023500008BF06271DD0042808BF082719D0052864
:1023600008BF0A2715D0062808BF0C2711D0072858
:1023700008BF10270DD0082808BF202709D009283A
:1023800008BF402705D00A280CBF80270B2800D0A3
:1023900001279FE001F0AFFF0146606A40B30128CA
:1023A00008BF0227F5D0022808BF0427F1D0032870
:1023B00008BF0627EDD0042808BF08270ED005283F
:1023C00008BF0A270AD0062808BF0C2706D007280E
:1023D00008BF102702D0082808BF20277AD0092874
:1023E00008BF402776D00A280CBF80270B2871D061
:1023F00001276FE0606AB0B3012808BFDFF8B405B9
:1024000033D0022808BFDFF884052ED0032808BF88
:10241000DFF8B40829D0042808BFDFF8740524D0F9
:10242000052808BFDFF8A4081FD0062808BFDFF87A
:1024300064051AD0072808BFDFF85C0515D0082806
:1024400008BFDFF8600510D0092808BFDFF858057D
:102450000BD00A2808BFDFF8540506D00B2808BFA8
:10246000DFF84C0501D0DFF89407616800EB5100FC
:10247000B0FBF1F66DE001F0EBFE0146606A40B39F
:10248000012808BF022725D0022808BF042721D031
:10249000032808BF06271DD0042808BF082719D025
:1024A000052808BF0A2715D0062808BF0C2711D019
:1024B000072808BF10270DD0082808BF202709D0FB
:1024C000092808BF402705D00A280CBF80270B2801
:1024D00000D001276068B1FBF7F1420802EB41022E
:1024E000B2FBF0F635E0666A66B3012E2CD0022E00
:1024F00008BFF24628D0032E08BF42F6AA2A23D0EE
:10250000042E08BFE2461FD0052E08BF41F6981AD8
:102510001AD0062E08BF41F2545A15D0072E08BF14
:102520009A4611D0082E08BF92460DD0092E08BF3A
:102530008A4609D00A2E08BF824605D00B2E08BF56
:10254000BA4601D04FF4803A60680AEB5001B1FB03
:10255000F0F6B6B201E04FF00109A6F110004045D7
:1025600080F0248108EA0601C6F342000143206896
:10257000C1601DE155B1012D38D0022D66D0042D6A
:1025800000F09E80082D00F0D08006E101F0ABFE47
:102590000146606A40B3012808BF022725D00228FF
:1025A00008BF042721D0032808BF06271DD0042810
:1025B00008BF082719D0052808BF0A2715D0062804
:1025C00008BF0C2711D0072808BF10270DD00828F6
:1025D00008BF202709D0092808BF402705D00A28AE
:1025E0000CBF80270B2800D0012798E001F083FE64
:1025F0000146606A40B3012808BF0227F5D00228CF
:1026000008BF0427F1D0032808BF06270AD00428F2
:1026100008BF082706D0052808BF0A2702D00628C9
:1026200008BF0C277BD0072808BF102777D00828C1
:1026300008BF202773D0092808BF40276FD00A2879
:102640000CBF80270B286AD0012768E0606AA0B31E
:10265000012808BFDFF8341330D0022808BFDFF8A4
:1026600030132BD0032808BFDFF8281326D0042806
:1026700008BFDFF8241321D0052808BFDFF81C139A
:102680001CD0062808BFDFF8181317D0072808BF8A
:10269000DFF8101312D0082808BFDFF80C130DD094
:1026A000092808BFC14909D00A2808BFC04905D078
:1026B0000B2808BF4FF2244100D0BE49606831E0CA
:1026C00001F0C6FD0146606A40B3012808BF022739
:1026D00025D0022808BF042721D0032808BF0627D9
:1026E0001DD0042808BF082719D0052808BF0A27CD
:1026F00015D0062808BF0C2711D0072808BF1027BF
:102700000DD0082808BF202709D0092808BF402776
:1027100005D00A280CBF80270B2800D0012760684D
:10272000B1FBF7F101EB500133E0666A76B3012E9D
:1027300008BFF2462AD0022E08BFE24626D0032E5A
:1027400008BF41F2555A21D0042E08BF9A461DD029
:10275000052E08BF40F6CC4A18D0062E08BF40F61A
:10276000AA2A13D0072E08BF92460FD0082E08BF02
:102770008A460BD0092E08BF824607D00A2E08BF12
:10278000BA4603D00B2E08BF4FF0800A60680AEBF0
:102790005001B1FBF0F6B6B201E04FF00109A6F12D
:1027A0001000404502D22168CE6001E04FF00109DF
:1027B00004F16800012100234180018043608360AF
:1027C0004846BDE8F28F0000F369FFCF00380140B2
:1027D00000800040FFF4FF118810024000440040D8
:1027E00000480040004C004090F82810CA0706D569
:1027F00002685368C16A23F400330B43536090F8B6
:1028000028108A0706D502685368016B23F48033C9
:102810000B43536090F828104A0706D502685368A6
:10282000416B23F480230B43536090F828100A0770
:1028300006D502685368816B23F400430B43536051
:1028400090F82810CA0606D502689368C16B23F475
:1028500080530B43936090F828108A0606D50268CF
:102860009368016C23F400530B43936090F8281095
:102870004A0610D502685368416C23F480130B4359
:102880005360436CB3F5801F05D15368816C23F40A
:10289000C0030B43536090F828100A0606D5016860
:1028A0004A68C06C22F4002202434A607047F8B5BF
:1028B000044604F17C05002068606FF07E4700F05C
:1028C00095FD0646206801680A0708D5009733463B
:1028D00000224FF40011204600F016F860B920687D
:1028E00001684A070AD50097334600224FF4800159
:1028F000204600F009F808B10320F2BD20206870DE
:10290000A87000202870F2BD2DE9F041069C054614
:102910000E4690461F462868C1693140B1420CBF3F
:102920000120002040451BD114F1010FF3D024B148
:1029300000F05CFDC01B8442EDD22868016821F4E0
:10294000D07101602868816849084900816005F1FB
:102950007C0020214170817000210170032000E083
:102960000020BDE8F08101680A6822F490720A60D4
:10297000DFF85C13026893680B409360202280F8B4
:102980007E200021C16670470050004000127A008E
:1029900000093D00AAB0280080841E00006A1800CB
:1029A0005558140040420F0020A1070090D00300AA
:1029B00048E801000024F4000000127A0000093DFC
:1029C00000AAB0280080841E00006A180055581420
:1029D0000040420F0020A107136823F0800313601A
:1029E0000068016841F0400101607047806A00F1B1
:1029F000560100220A810A8001F07AB890F87D1011
:102A000021290ED10268B0F8561001B9E4E7016D32
:102A10004B1C036509781185B0F85620511EA0F8AB
:102A20005610704790F87D10212911D10268B0F836
:102A3000561001B9D0E7016D0B88C3F30803138565
:102A4000016D8A1C0265B0F856104A1EA0F8562087
:102A5000704790F87D10212900D0704730B500F103
:102A60005602938A0BE0E1690D0607D5016D4D1CF6
:102A70000565097821851488651E15805B1ED9B20D
:102A800029B1046811880029EDD100F023F830BD88
:102A900090F87D10212900D0704730B500F1560222
:102AA000938A0EE0E1690D060AD5016D0D88C5F324
:102AB00008052585016D8C1C04651588691E11802B
:102AC0005B1ED9B229B1046811880029EAD100F04F
:102AD00001F830BDA16821F40001A160006801681F
:102AE00041F040010160704770B500F15E0200F1F5
:102AF0006C01538804688D7C222D18D1A48C856DBF
:102B00006E1C866523402B7013885B1E13809BB25E
:102B10008BB90268136823F4907300F00DF820223B
:102B20008A7400230B60BDE8704000F07FBE208BEC
:102B300040F00800208370BD1360026893685B0852
:102B40005B009360704738B500F16C020168937CBC
:102B5000222B20D18B8C856D00F15E0461880B40A7
:102B60002B80816D8B1C83652588691E218089B22D
:102B7000A9B901680B6823F490730B6001688B6836
:102B80005B085B008B602021917400231360BDE81B
:102B9000324000F04BBE088B40F00800088331BD86
:102BA0002DE9F04100F05FF820D167890FE030682F
:102BB000808CB16D4A1CB26508EA0000087021885B
:102BC0004B1E2380208808B900F064F87F1EF8B2FD
:102BD0000028ECD1208858B121886089814207D231
:102BE00000F052F83B4800F048F801E000F00AF825
:102BF000BDE8F081000000000090D0030048E8012B
:102C0000000024F43068018B41F008010183704713
:102C10002DE9F04100F027F821D1678910E03068F4
:102C2000808CB16D08EA00000880B06D821CB2652E
:102C300021884B1E2380208808B900F02BF87F1EC6
:102C4000F8B20028EBD1208858B1218860898142F0
:102C500007D200F019F8204800F00FF801E0FFF764
:102C6000D1FFBDE8F081064606F15E0406F16C0571
:102C7000B4F80280A87C2228704728603068016878
:102C800041F02001016070473068816821F0805177
:102C90008160704730680E4A016821F480710160DC
:102CA00020233068816811408160AB740020286067
:102CB000304600F0BBBD00000055150000CC0C00F4
:102CC00000AA0A0000FD0F005461510000D430003A
:102CD000FEFFFFEFE92A0008472B0008684881B093
:102CE000816841F001018160816801F0010100917A
:102CF0000099026842F080520260006800F0805043
:102D00000090009801B0704710B586B00446684640
:102D1000142101F0D9FB21685A4C5B48A14223D110
:102D2000016941F001010161016901F001010591B1
:102D30000599026842F040020260006800F040001D
:102D40000590059801F02BFC4FF4C0710091022210
:102D50000021029101920821032204910392694605
:102D60004A4801F02DFC48E0494A914220D1C1680F
:102D700041F40031C160C16801F400310591059949
:102D8000026842F0010202600C21006800F00100BC
:102D900005900222059800F032F84FF0904001F0C3
:102DA0000FFC00220021262001F0AAFD262022E0AF
:102DB000384A914221D1C16841F48021C160C16883
:102DC00001F4802105910599026842F00802026031
:102DD0004FF44071006800F0080005900222059849
:102DE0002D4800F00CF801F0EBFB00220021272019
:102DF00001F086FD272001F0A0FD06B010BD009176
:102E00000192002102910322072104910392694655
:102E1000704781B000682149884209D12048026882
:102E200042F480320260006800F480300090009824
:102E300001B0704738B586B0044601A8142101F0EE
:102E400043FB2468154DAC4217D10F48016841F08F
:102E5000020101604FF48041006800F00200009020
:102E6000022200980F4801910292002103910491DF
:102E70000E21059101A901F0A3FB07B030BD0000B0
:102E800058100240008000404C10024000180048DA
:102E90000044004000480040000C00480040014051
:102EA00060100240000400482DE9F84F86B001A8E8
:102EB000142101F009FBDFF8DC06DFF8DC560468BA
:102EC00044F00404046005F188060168DFF8CC468C
:102ED00001F0040100910099026842F002020260D0
:102EE000036803F0020300930099026842F00802AD
:102EF0000260036803F0080300930099026842F03F
:102F000040020260006800F040000090009801F06C
:102F100046FB00228921204601F0B0FC4FF400500E
:102F2000DFF87C16019002910022039201A920464D
:102F300001F046FB892101910122002103910491B6
:102F4000029201A9204601F03BFB0022002128202B
:102F500001F0D6FC282001F0F0FCDFF8480668609C
:102F60004FF41651A9600020E860286168610C21C7
:102F7000E86128626862A862E862A961281DFEF71C
:102F800063FC0021281D00F0E1FD0021281D00F058
:102F9000E8FD281D00F0BCFDDFF80C0630604FF4A2
:102FA000E1310C20002270617160B260F260326128
:102FB000B261F26132627262B2623046FEF744FC84
:102FC0000021304600F0C2FD0021304600F0C9FD6E
:102FD000304600F09DFD00F05AF901F0D9FC642064
:102FE00001F0FAFD01F085FE01F084FE022205F5F4
:102FF0008871281DFEF771FDC5A002F08FF9DFF87A
:10300000AC65304602F08AF906F14C0002F086F910
:1030100006F1980002F082F90FF2CC500FF2BC5189
:103020000190009100230122012106F1E40002F049
:1030300075F9304602F072F900F073F900F09AF970
:1030400020B10FF2B05002F069F9FEE702F0EBFA9E
:1030500020B10FF2B85002F061F9FEE702F042FC35
:10306000002202210A2001F0CAFE012202211A20B8
:1030700001F0C5FE022202212A2001F0C0FE032237
:1030800002213A2001F0BBFE10230FF29C520221D4
:103090004A2001F09AFE02F035FE05F58A7641F2EB
:1030A00088390FF2A458DFF808750FF2845A05F535
:1030B000867B4CE0484601F08FFD44E00821204625
:1030C00001F0DCFB07F10C0002F05DFE00283AD0B5
:1030D00002F08CFB2878012825D197F9000000F038
:1030E0006EF81023424600F06EF81023324600F0CE
:1030F0006AF8787800F063F810234246032100F064
:1031000063F810233246032100F05EF8B88800F01F
:1031100056F810234246062100F056F81023324696
:10312000062100F051F8494607F10C0002F00AFEB2
:103130008021204601F0A7FBFA2001F04DFD8021FF
:10314000204601F0A0FB4FF47A7001F045FD2020ED
:1031500002F026FE10B1504602F0E0F8C82001F05F
:103160003BFD584602F028FE20B9584602F02FFEDB
:10317000B88003E00FF2C44002F0D0F802F0E8FBA0
:10318000002897D101F006FC00F073F9387A28B1D5
:1031900002F084FB00F0DCF900203872B888F9886E
:1031A000884239BF0122012100220121204601F07D
:1031B00065FBB87801280CBF012200227EE70A22B5
:1031C000314600F008BB0021202001F0FEBD18B5FB
:1031D000BBB0DFF8E04305A82146442202F00CFE14
:1031E0006846142101F070F916A804F144019422F4
:1031F00002F002FE002001F080F901210B91002273
:1032000060210D910C9201211091119110200590D7
:1032100002223C210F92129113921492159205A84A
:1032200000F010FD0F20032100F074F8052168461E
:1032300000F02FFF64210022169127922A922B92F0
:1032400016A802F0E5FD3CB010BDF8B504460D200F
:103250008DF800000025DFF8606386F87C5020467A
:1032600001F04DFE07460FE0615D0A2905D10123FB
:10327000012269463046FEF727FB0123012261192E
:103280003046FEF721FB6D1CBD42EDD3F1BD30B5DC
:1032900095B007AA00230024002582E8380000F03A
:1032A00053F90AA82C2101F00FF9C44CC44820603E
:1032B00040F65F114CF25030E0606160A56025611E
:1032C0006561A561204603F076F80795099507A981
:1032D000204603F05BFB602046F2A81100F01AF8CC
:1032E000059206926946204603F000F94FF400511A
:1032F0000F910A950B950C950D950E9514950AA9AD
:10330000204603F06CFB2046FFF794FD15B030BD5E
:103310000A000000009001910022029203920492A0
:10332000704710B5A24C0021A170A01D03F00CFD48
:10333000E08808B93221E180E01C03F0D0FC94F968
:10334000030008B91C21E17094F903109D484A1E3E
:1033500001F0E4FF04F10C0002F01EFD04F1140082
:1033600002F01AFD04F10C00BDE8104041F2883172
:1033700002F0E8BC10B5944C944A86B00121204676
:1033800003F028FD78BB4FF4FA7001F025FC0FF232
:10339000C02001F0C3FF206801A903F044FD00280C
:1033A00004BF9DF8040000281DD19DF814009DF86D
:1033B00013309DF812209DF811100090ABA001F081
:1033C000ADFF03F07DFC38B9814801F0A7FF41F261
:1033D000883000F00DF808B103F0E0FB02F016F8B9
:1033E000002006B010BD4FF0FF30FAE703F0D2BD69
:1033F00038B50446FFF7FAFF2418764D28780228DE
:1034000008DA2978012909D0FFF7F0FFA042F5D3A7
:10341000002032BD00202870022032BD002129701A
:10342000012032BDB0F5005F03D16A480178491C24
:103430000170704711B581B05F4C47F230530122E3
:1034400001A92046FEF740FA0028F6D1019816BDE2
:103450001CB500208DF80000574C47F23053012274
:1034600069462046FEF787FA0028F6D19DF800004D
:1034700016BD38B54E4CA07842F2107518B102282E
:1034800026D00FD331BD215694F90300814227DBAA
:103490000122A270294604F1140002F053FC01211C
:1034A000217231BD00F01DF804DA00F06FF8002041
:1034B000A07031BD04F1140002F065FC80B1012060
:1034C0002072294604F11400BDE8344002F03ABCF1
:1034D00000F007F804DA0020A070BDE8314055E0A4
:1034E00031BD94F9031094F90000491E88427047D9
:1034F0002F49887070472E48807870472C4890F983
:10350000000070472A490870704729494870704781
:103510002748407870472648808870472449C870FB
:103520007047234890F9030070472149C8807047CD
:103530001F48C088704730B587B000F005F800F02C
:103540001DF846F2A7150BE068461C2100F0BCBF31
:1035500030B587B0FFF7F8FF00F010F84CF24F35A8
:103560000392059201956946144C204602F0BEFF75
:103570000021204602F02CFF07B030BD60240094EB
:1035800000210291002204910691704700210B480E
:1035900002F047BF4C100240609A0020000800482B
:1035A000000011100044004000480040780001086D
:1035B000BC9E0020A00301087C9B0020A09D002051
:1035C00000400140AC070108449F0020B1FA000808
:1035D00030080108569F0020704700004E6F76208B
:1035E000203720323032300031383A35353A3534F0
:1035F000000000007769666920696E697469616C12
:10360000206661696C6564210A0000004D515454C4
:1036100020636F6E6E656374696F6E206661696C9E
:103620006564210A0000000042726F4A2100000018
:1036300073656E64206661696C0A0000726563766A
:10364000206661696C0A0000202020200000000034
:1036500052657472696576696E6720746865204981
:103660005020616464726573732E0A0049502061B2
:103670006464726573733A2025642E25642E256474
:103680002E25640A0000000038B500F12402002451
:103690005178022903D004209061012428E00168B8
:1036A0000B6823F00E030B6001680D686D086D0058
:1036B0000D60516A0B6823F480730B60012192F84E
:1036C0002030D56903F01C0399406960936AD16A80
:1036D0005960116B31B10B6823F480730B60536B2D
:1036E000916B5960012151701470516901B1884783
:1036F000204632BD10B5DFF8D043DFF8D00320609C
:103700004FF4E1310C20002260616160A260E26050
:103710002261A261E26122626262A2622046FEF739
:1037200093F810B14FF0FF3010BDDFF8A41301F58E
:1037300080600022026020460122FEF7CEF90020C0
:1037400010BD38B50A46DFF88C430021217092B2D3
:103750000146DFF87403FEF776F960B9FFF746FE1D
:1037600005462078012809D0FFF740FE401B42F2B1
:1037700011718842F5D34FF0FF3032BD002032BDC9
:103780002DE9F84381460D4690460026D04F0FE0C4
:103790003046BDE8F283795C09F8011B761C41884C
:1037A000491C418089B2B1F5806FA4BF00214180DE
:1037B0002846451E0028EBD0FFF718FE044607F503
:1037C0008060418802889142E5D1FFF70FFE001B1F
:1037D0004045F4D3ECE770B50346002508460A2AB5
:1037E000044601D0257070BD002B03D1302121701B
:1037F000657070BD03D52D2104F8011B5B4242F2B8
:10380000107293FBF2F655EA060106D006F130017C
:1038100004F8011B02FB163301250A2692FBF6F27F
:10382000002AEEDC0021217070BD00003EB500686A
:10383000A94B984240F0F680A84CA94802222146A4
:10384000FEF74BF9ABA001F069FD2146AEA001F0F7
:1038500065FD207830283DD16178A24830290CD10F
:103860000022027001F046FA042200F019F9052244
:1038700000F011F90622002129E031299A4C04D1E7
:1038800000F012F9E078411EB2E0322905D100F0D3
:103890000BF9E078401CE070ABE033291BD100F05D
:1038A00003F900F0FCF800F0F5F80D2200F0E9F85B
:1038B0000E2200F0E2F800F0E8F800F0D9F800F08D
:1038C000D3F800F0CCF800F0C4F813220321202034
:1038D00001F095FA37BD34291DD100F0E5F800F06C
:1038E000DEF800F0D7F80F2200F0CBF8102200F03D
:1038F000C4F800F0CAF800F0BBF800F0B5F8607842
:1039000000F0AFF800F0A5F81023252203212020B5
:1039100001F01AFA37BD352967A51BD100F0C4F8AC
:1039200000F0BDF800F0B6F8112200F0AAF812225B
:1039300000F0A3F800F0A9F800F09AF800F094F86D
:10394000A08800F08EF800F084F810232A460321A6
:1039500020203FE0362940D10121017001F0CAF951
:1039600000F082F8102355A2002001F02EFA00F09A
:1039700076F810236A460021202001F026FA13224F
:1039800000F084F810234EA20321002001F01DFA5C
:10399000607800F066F810236A460321202001F0C9
:1039A00014FA102325220321402001F0CDF9102321
:1039B00044A20621002001F008FAA08800F051F886
:1039C00010236A460621202001F0FFF910232A4621
:1039D0000621402001F0F9F937BD372902D100F066
:1039E00063F837BD382933D100F05EF8E078411F25
:1039F000E17000F054F800F04DF8092200F041F8B1
:103A00000A2200F03AF800F040F800F02DF894F99E
:103A1000030000F026F810236A460021502001F030
:103A2000D4F937BD31480168491C01602848B0F815
:103A30000014491C8AB2B2F5806FA8BF0021A0F81B
:103A400000140122B0F8001401441F48FEF745F8A5
:103A500037BD10236A460321002001F0B6B994F95E
:103A600000000A226946B6E60021CDE90011704740
:103A70000C220021502001F0C2B90021302001F0B9
:103A8000BEB90021202001F0BAB90B22002140204C
:103A900001F0B5B908220021102001F0B0B90722C9
:103AA0000021002001F0ABB90021017001F022B922
:103AB00008490120087070476C757800543A00007E
:103AC000483A00004C3A0000E89A002000480040C4
:103AD000B4900020549F002000440040709B0020C0
:103AE000649A0020609A0020BC9E0020409F002025
:103AF000704700005265636569766520537563639E
:103B0000657373210D0A000025730D0A0000000083
:103B100010B500F17C010A78012A01D1022010BD04
:103B200001220A7024234B70026813681468640829
:103B3000640014600022426623F0005300680360B2
:103B400020224A7000230B70002010BD70B500F0D9
:103B50001FF801D1022070BD00F020F822F0604271
:103B600009E070B500F014F801D1022070BD00F03A
:103B700015F822F0606211438160204600F01CF8C5
:103B8000206806602021697000222A70002070BD24
:103B9000044604F17C05287801287047012028702C
:103BA00024226A7020680668026852085200026087
:103BB0002068826870470000FFB500BF15A200BFF3
:103BC00016A6D2E9003402A9C1E90034D6E9007191
:103BD000CDE90071416E11B90121012215E00168A2
:103BE0008A688968520E02F00702490F02AC655CD0
:103BF000A45C1DF801101DF80220ED06E4062D0E50
:103C0000240E95FBF1F194FBF2F2683041800280C2
:103C1000FFBD0000010101030701000008040204C8
:103C2000080100007047704770478268521C82602C
:103C3000426832B10268531C036011704168491E2A
:103C4000416070472DE9FC47040019D0DFF82C775C
:103C5000DFF83457B868FE6800F00C082078C10619
:103C600006F0030650D5B8F1000F04D0B8F10C0FE0
:103C700008BF012E2AD13868810703D5A069002822
:103C800000F04281396808074EBF39686968090940
:103C9000206A01F0F001814206D200F038FB0028D2
:103CA00008D100F0E4F907E000F0E1F9206A00F043
:103CB0002EFB002840F0288100F0CAFA00F0BCFA80
:103CC00003F096F9010000F00E81CEE1A06990B1F9
:103CD000396841F001013960FFF788FB8146386897
:103CE000810700F1FE80FFF781FBA0EB09000328AC
:103CF000F5D30320B9E13868400840003860FFF789
:103D000075FB81463868810740F1ED80FFF76EFB57
:103D1000A0EB09000328F5D3EBE76068B0F5803F1E
:103D200004D1386840F48030386011E0B0F5A02F3D
:103D3000386806D140F480203860396841F4803119
:103D400005E020F480303860396821F48021396042
:103D5000606868B1FFF74AFB81463868810300F16B
:103D6000D580FFF743FBA0EB09006528F5D3C0E73A
:103D7000FFF73CFB81463868810340F1C780FFF7BD
:103D800035FBA0EB09006528F5D3B2E7FFF72EFB62
:103D9000801B0328C0F0E180ABE7E06880B13968A0
:103DA00041F480713960FFF721FB06463868410510
:103DB00000F1BE80FFF71AFB801B0328F6D398E7BB
:103DC000386820F480703860FFF710FB06463868CA
:103DD000410540F1B480FFF709FB801B0328F6D3AF
:103DE00087E7400840006860FFF700FB0646686808
:103DF000810740F1B680FFF7F9FA801B0328F6D35C
:103E000077E70528286806D140F004002860296873
:103E100041F0010105E0400840002860296821F0D8
:103E200004012960A06841F2893968B1FFF7DEFA20
:103E300082462868810700F1C880FFF7D7FAA0EB17
:103E40000A004845F5D354E7FFF7D0FA82462868C0
:103E5000810740F1BA80FFF7C9FAA0EB0A00484594
:103E6000F5D346E7FFF7C2FA801B0328C0F0C080F5
:103E70003FE740084000A860FFF7B8FA0646A86888
:103E8000810740F1B980FFF7B1FA801B0328F6D310
:103E90002FE7FFF7ABFA401B0328C0F0BC8028E7F0
:103EA000FFF7A4FA001B0328C0F0DA8021E7396885
:103EB00011F0205F03D1F86880088000F860F9688D
:103EC000DFF8C8040140F960FFF790FA044638684B
:103ED000810140F1C980FFF789FA001B0328F6D35E
:103EE00007E700F0C4F82078C1070FD5B8F1080F34
:103EF00005D0B8F10C0F08BF032E7FF40EAF386861
:103F0000810303D5606808B90120AEE020788107FD
:103F100015D5B8F1040F05D0B8F10C0F08BF022E6B
:103F20007FF43BAF3868410502D5E0680028EBD04C
:103F30007868216920F0FE4040EA016078602078CE
:103F400001070ED56069002868683FF44AAF40F069
:103F500001006860FFF74AFA0646686881077FF546
:103F600015AF2078410735D5B86D0026C10009D4BA
:103F7000B86D40F08050B8650126B86D00F08050F3
:103F800000900098DFF80894D9F80000C10513D418
:103F9000D9F8000040F48070C9F80000FFF726FA55
:103FA0008246D9F80000C10506D4FFF71FFAA0EB3E
:103FB0000A000328F5D39CE6A06801287FF421AF0E
:103FC000286840F0010028602CE71EB1B86D20F091
:103FD0008050B865207881060ED5606A0028A868F0
:103FE0003FF447AF40F00100A860FFF7FFF9064635
:103FF000A86881077FF536AFA06AA8B3B8F10C0FA7
:1040000082D00228386820F0807038607FF44FAF8B
:10401000FFF7ECF90546386881013FF53AAF206BB0
:10402000616B401E090241EA0011E26BE06A52082E
:104030000143206C521E400841EA4251401E41EAB1
:104040004061A06B41EAC061F960396841F080715C
:104050003960F86840F08070F860FFF7C7F90446EF
:10406000386881017FF51CAF0020BDE8F68738680D
:1040700040F0080038603968206A21F0F0010143FF
:1040800039607968E06921F47F4141EA0021796073
:1040900070472DE9F84304460026002C63D0DFF872
:1040A000F4522868884600F00F00404502D200F024
:1040B000B9F858D12168DFF8C472C80740F1A88068
:1040C0006068DFF8D492032843D1386882014AD56A
:1040D000FA68002002F00302012A0FD138680207B3
:1040E00005D4DFF8A0020268C2F3032002E03868BA
:1040F000C0F30310DFF8A42252F82000FB68FA682E
:10410000C2F30312521C03F00303022B04D0032B4F
:1041100007D1DFF88C0204E0DFF88832B3FBF2F25B
:1041200001E0B0FBF2F2F868C0F306204243F86801
:10413000C0F34160401C4000B2FBF0F0484520D382
:10414000BA6812F0F00F15D089071AD5A068C0B967
:1041500010E0022802D13868810303E000283868A3
:1041600002D1810702D434E0410532D500F070F865
:10417000484506D3B86820F0F00040F08000B860F1
:104180008026B9686068890840EA8101B960FFF754
:104190002DF98146B868616800F00C00B0EB810F22
:1041A00036D0FFF723F9A0EB090041F289318842AC
:1041B000F0D303202AE0802E03D1B86820F0F0006D
:1041C000B860286800F00F00804504D200F02AF89B
:1041D00001D001201AE02078410705D5BA68E068CF
:1041E00022F4E0620243BA602178080706D5B96874
:1041F000206921F4605141EAC001B96000F028F85B
:1042000000F01AF8BDE8F24302F0F2BEBDE8F28316
:1042100020788107CFD5BA68A06822F0F002024367
:10422000BA60CEE72968090948EA011129602868BF
:1042300000F00F0040457047BA685B49C2F30312B3
:10424000895C4F4A01F01F01C84010600020704790
:1042500010B54A4A9068D4680023002110F00C0081
:1042600004F0030403D00C2812D1012C1AD11368D6
:104270001C0704D4434B1C68C4F3032302E01368F7
:10428000C3F30313454C54F8233048B9194628E0CA
:10429000042808BF434924D0082822D1404920E0FF
:1042A0000C281ED1D168D068C0F30310401C01F067
:1042B0000301022902D0032902D005E0394900E0B8
:1042C0003749B1FBF0F101E0B3FBF0F1D068C0F386
:1042D00006204143D068C0F34160401C4000B1FB60
:1042E000F0F1084610BD2648304A0068136830498E
:1042F000C3F3022206E022482C4A006813682C49C6
:10430000C3F3C222895C01F01F01C84070477CB52D
:10431000284E054630680024C10002D500F0D8F8C8
:104320000EE0306840F080503060316801F080511C
:104330000091009800F0CCF8316821F08051316094
:10434000B0F5007F04D1802D09D9A12D06D301E05D
:10435000802D01D3022402E0702D00D101240D48EC
:104360000168090944EA01110160006800F00F00CA
:10437000A04201D0012076BD002076BD0010024091
:10438000B80000209410024090100240FFFFEEFEA3
:10439000007000400020024001B4C404940D0108E4
:1043A00000127A000024F40000F90008081002400E
:1043B0002810010858100240D3BBD9B1B2F5803F94
:1043C0005BD2022A1ED98C46B1FBF2F102FB11C36B
:1043D0001B0443EA1043B3FBF2FC02FB1C3380B224
:1043E00040EA0343B3FBF2F002FB103240EA0C4018
:1043F00000237047022A05D98446B0FBF2F002FB85
:1044000010C270474AB105D100F0010249085FEAC5
:104410003000704700220023704702F001BE0B00FD
:104420000200002100207047F7D3002200237047CC
:10443000904271EB030CF2D370B5B1FA81F4B3FA88
:1044400083F52C1BA340C4F1200532FA05F6334353
:10445000A2405FF00046E64002E05B085FEA3202FD
:10446000841A71EB030524BF204629467641F4D314
:1044700002000B003000002170BD70B5B1FA81F46C
:10448000B2FA82F5C4F120046419B4F12006DAD33B
:10449000B2405FF00044F440002502E052085FEAB9
:1044A0003303C61A71EB020E24BF304671466441D5
:1044B0006D41F3D302000B002000290070BD02689B
:1044C000531C036011707047002202F0ABBD000066
:1044D000DFF8D800016801F4C061B1F5806F02D146
:1044E0004FF480607047DFF8C8000168CA0502D544
:1044F0004FF4007070470020704710B53222DFF88B
:10450000B430DFF8AC40DFF8A41078B900F032F82E
:1045100020F48070206022D100F033F84A695305FE
:104520001FD5002818BF401EF8D11AE0B0F5007F53
:104530000FD100F01FF840F4807020600FD100F020
:1045400020F84A69530510D5002818BF401EF8D13D
:104550000BE00A6822F4C06242F480620A60002024
:1045600010BD4869410503D4F9E748694105F6D50E
:10457000032010BD086800F4C060B0F5806F2068AB
:1045800070470C6824F4C06444F400740C6018682C
:10459000DFF824304243B2FBF3F0401C7047DFF8F1
:1045A0001C00016841F40071016070470070004018
:1045B00080700040B800002040420F0004700040AE
:1045C0002DE9F8470026B64A0F230446884632E014
:1045D000B44DAC4214BF082507258D4045EA0E05B1
:1045E0004CF82750C743B0490D6800F0C2F8ED03FE
:1045F00048BF40EA0C0CC1F800C04D6800F0B9F8A3
:10460000AD0348BF40EA0C0CC1F804C08D6800F04F
:10461000B0F8ED0248BF40EA0C0CC1F808C0CD6804
:1046200007EA050CD8F80470BD0248BF40EA0C0C3C
:10463000C1F80CC0761CD8F8001031FA06F000F072
:1046400096800127B74017EA0100F3D0D8F804504C
:10465000B100022D18BF122D12D1F50804EB850C04
:1046600001F01C05DCF820E0D8F810A003FA05F9E9
:104670002EEA090E0AFA05F545EA0E05CCF8205097
:104680004FEA460C4FF0030E256898F804900EFA96
:104690000CFE6FEA0E0E09F003090EEA050509FA91
:1046A0000CF949EA05052560D8F80450012D18BF1A
:1046B000022D03D0112D18BF122D13D1A568D8F8E3
:1046C0000C900EEA050509FA0CF949EA0505A56002
:1046D000656825EA0707D8F80450C5F30015B5400A
:1046E0002F436760E7680EEA0705D8F8087007FAF5
:1046F0000CF73D43E560D8F80450EF009AD51568F3
:10470000DFF8A8C145F00105156001F00C0117683C
:1047100007F00107009703FA01FE009FB7085CF855
:10472000275025EA0E0EB4F1904F08BF00251DD08A
:104730005F4DAC4208BF012518D05E4DAC4208BFAA
:10474000022513D05C4DAC4208BF03250ED05B4D53
:10475000AC4208BF042509D0594DAC4208BF05251D
:1047600004D0584DAC427FF433AF062535E7BDE8A1
:10477000F18707EA050CD8F8045070472DE9F04797
:104780000022494BDFF824814FF00F0904461BE05B
:10479000444DAC4214BF08250725B540AE4512D1A3
:1047A00058F8276026EA0C0548F82750C0431F68D0
:1047B00007401F605E6806405E609F6807409F601C
:1047C000DE683040D860521C31FA02F054D0012724
:1047D000974017EA0100F6D00326550006FA05FCBB
:1047E00025684CEA050525609600D50804EB850E82
:1047F00006F01C0ADEF8205009FA0AFA25EA0A0532
:10480000CEF820506FEA0C0CA5680CEA0505A560EF
:1048100006F00C06656825EA07076760E7680CEA9A
:104820000705E560970858F8275009FA06FC0CEAD6
:10483000050EB4F1904F08BF0025AED01C4DAC4220
:1048400008BF0125A9D01B4DAC4208BF0225A4D04A
:10485000194DAC4208BF03259FD0184DAC4208BF8C
:1048600004259AD0164DAC4208BF052595D0154DAC
:10487000AC428DD1062590E7BDE8F0870AB1816191
:1048800070478162704742695140416170470E4AEA
:10489000136803421CBF1060FEF7C4BD70470000E0
:1048A00060100240001C0048000401400800014064
:1048B0000004004800080048000C004800100048B0
:1048C00000140048001800481404014009010200C7
:1048D00006D5294A00F00F00104400F8041C704768
:1048E000264B19547047264B19684FF6FF020002F9
:1048F000114000F4E0600843224908431860704703
:1049000038B51F4B1C68C4F30223C3F10704052C00
:1049100028BF04241D1D072D34BF0023DB1E0125E5
:1049200005FA04F4641E2140994005FA03F35B1E66
:104930001A401143BDE83440C8E7012200F01F01CE
:10494000114BFFE78A40400943F82020704710B51B
:10495000401EB0F1807F01D3012010BD0B4C606080
:104960000F214FF0FF30FFF7B1FF0021A1600720BA
:104970002060002010BD000018ED00E000E400E021
:104980000CED00E00000FA0500E100E010E000E0BE
:1049900002F062BB80B502F0A6FBBDE8014002F068
:1049A000AFBB00000268516003680B6001604860A3
:1049B0007047026841685160416803680B6040605D
:1049C0000060704770B5DFF8B802046802F0C0FB01
:1049D0000546204602F0CCFC04F134060420307079
:1049E00000F07CF8204602F093FD012804BFF06B34
:1049F000002803D1204602F042FD01E000F073F8E8
:104A000000F0E7F8BDE8704002F06CBCFEB505466A
:104A1000089809990A9C0B9E05F11407AF616F6114
:104A20002A62A862E9626B620A46A86A232100F042
:104A300013FAA86AE96A934B01440A1F696A286A53
:104A400002F06CFDE861002105F1340084704470CF
:104A500041608660C66029630170C1630164019191
:104A600000912B460FF2F912294605F1440003F09C
:104A700019F80020FEBD2DE9F84F84B08A46934610
:104A80000E9D0F9E109C119F814698465246012113
:104A900002F0D6FC039702940196009543465A46CD
:104AA00051464846FFF7B2FF05B0BDE8F08F7448A5
:104AB0000068704780B500F1340101238A784A709C
:104AC00003FA02F24A6002220A7000F0A7F86C4969
:104AD000086808B102F006FC002002BD04F14400A1
:104AE00002F0F4BF054604F1140167485AE72DE9C6
:104AF000FF4105460E4690461F462946012002F01A
:104B0000C8FC040006D0384603F0F0F820B920466F
:104B100002F0E8FC00200CE00B9A0A990392029143
:104B2000019700904346324629462046FFF76EFF24
:104B3000204604B0BDE8F08170B502F009FB0446E0
:104B40004F48056805F13406317801F00F0101295D
:104B50001BD16869A969884217D005F11400FFF7D5
:104B600028FF7178494800EBC10005F11402416843
:104B70000A6005F114014268AA614160686120463B
:104B800002F0EAFA02F0AEFB02E0204602F0E4FA9C
:104B9000002070BD31B502F0DBFA054638480468E4
:104BA000204600F01FF86A46002104F1440002F09C
:104BB000F5FF04F1440002F096FF00F00AF802F05D
:104BC00091FB206B10F1020F04BF00212163002034
:104BD00032BD284602F0C0BA80B502F0F5F9BDE852
:104BE0000240D7E738B500F031F8012800D033E0B3
:104BF00002F0AEFA054694F8340000F0F00040F000
:104C0000020084F83400204602F0B2FB04F14400B4
:104C100002F0ABFFFFF7DDFF002032BD38B500F03A
:104C200015F8022800D017E002F092FA054604F1C8
:104C30001400FFF7BEFE04F1440002F096FFFFF7F8
:104C4000C8FF204602F071FB002032BD044694F8F4
:104C5000340000F00F0070474FF0FF3032BD00000D
:104C600010B504466FF00101216304F11400FFF751
:104C7000A0FE204602F059FBBDE8104002F032BB16
:104C8000FC940020C549000804950020BC94002035
:104C9000FEB500246C4D6D4E012701974FF48070D6
:104CA0000290E7B23744009701230022782128467A
:104CB00003F04FFA641CE2B21B2AEDDBF7BD01B52D
:104CC00084B000F00DF8002204E001B584B000F0DB
:104CD00007F8402278215C4803F03BFA05B000BD9C
:104CE0004FF48070012104AA0290019100920123E7
:104CF0007047CDE738B5002500F022F80020FFF717
:104D0000DEFF1020FFF7DBFF80240020FFF7DDFF30
:104D1000641EFAD16D1CE8B20828EDDB31BD10B578
:104D20000446A1F15000C0B2FFF7C9FF200940F0CE
:104D30001000FFF7C4FF04F00F00BDE81040BEE70D
:104D4000A5F15000C0B2BAE72DE9F0410024804639
:104D50000F468028A4BFA046BF1CA2F12005102B3F
:104D6000EDB2F9B240461ED1FFF7D9FF2D01384E02
:104D700055FA84F0641C305CFFF7A7FFE0B2082806
:104D8000F6DB7F1CF9B24046FFF7C9FF002455FA55
:104D900084F03018641C007AFFF797FFE0B208280F
:104DA000F5DBBDE8F081FFF7BAFF294E062010FBC6
:104DB00005F0304400F5BC61E2B2641C885CFFF78A
:104DC00084FFE0B20628F1DBEBE72DE9F041044671
:104DD0000D461646984600270BE04346E9B2E0B27E
:104DE000FFF7B2FF0834E0B27928A4BF0024AD1C5D
:104DF0007F1CF8B2325C002AEFD1BDE8F081F8B533
:104E000005460E461446FFF78AFF1248002700EBBE
:104E10008414F8B27F1C205CFFF757FFF8B210280B
:104E2000F7DB761CF1B22846FFF779FF0025E8B2E0
:104E300020446D1C90F82000FFF747FFE8B21028CF
:104E4000F5DBF1BD00000000549D0020780000203B
:104E500094E100089CE9000810B51346042B0446B1
:104E600001F0FF0115D314F0030213D141EA01222E
:104E700042EA024205E0026042608260C260103095
:104E8000103B102BF7D2042B24BF40F8042B1B1F20
:104E9000F9D21BB10A461946FCF7A0FC204610BD0A
:104EA00030B50446A1423CBF8D18AC420ED2A318C7
:104EB00011464A1E00291CBF15F8011D03F8011DEB
:104EC000F6D130BD11F8013B04F8013B13465A1EE0
:104ED000002BF7D130BD002A00D1704710B5034632
:104EE00011F8014B03F8014B14B1521EF8D110BD5B
:104EF000521E1CBF002103F8011BF9D110BD024650
:104F000000E0521C11780029FBD1101A70471CB523
:104F10000FF26C40DFF85C4400F000FA204600F02D
:104F2000FDF90FF2884000900323012203210FF2C4
:104F30005C4000F0F3F904F12400BDE81640EDE117
:104F400010B5014600200A2405E0531C0B601278BE
:104F500004FB002030380A681378303B0A2BF4D366
:104F600010BD2DE9F04F884685B08146109E710630
:104F70004CBF0FF260440FF24844F10648BF26F0E0
:104F800001061046F1070F9A00924CBF30272027E8
:104F9000B1074FF0000C0ED5002803D54FF02D0CB3
:104FA000404208E0710748BF4FF02B0C03D4310793
:104FB00048BF4FF0200C002100280DF1040E5DD1F8
:104FC00030218DF80410012309E000F00F0B0009D7
:104FD00014F80BA00EF805A000284FD10B460E9C2C
:104FE00018469342B8BF1046241A16F0110F4946CE
:104FF0000FD1BCF1000F08D0002C06DD641E04E0C8
:1050000041453CBF20220A70491C2246541E002AFA
:10501000F6DCBCF1000F05D0414538BF81F800C077
:10502000641E491CF20608D403E0414538BF0F70E6
:10503000491C2246541E002AF7DC0246501E9342A9
:105040000BDA41453CBF30220A70491CF5E7414567
:105050003CBF1EF803000870491C1846431E002878
:1050600002DD00980028F2D12046441E002814DDFD
:1050700041453CBF20200870491CF5E70D46691CDE
:105080000A2BA2D14FF00A0AB0FBFAFA4FF00A0B32
:105090000BFB1A00834650469AE7084605B0BDE868
:1050A000F08F2DE9F74F84B001440646039108467E
:1050B000049988429B461AD24FF0FF300390014674
:1050C0000498091A059112E068285BF8042B03D1B3
:1050D00092B2B80748BF12B2FFB20297019400958E
:1050E00030460399FFF73DFF064600F013F9069896
:1050F0000078DDF80C80002800F0EF80252840F0D3
:10510000E380002701E047F0100700F003F908787A
:105110002D28F8D02B2808BF47F00407F5D0202809
:1051200008BF47F00807F0D0232808BF47F0200742
:10513000EBD0302808BF47F00107E6D0DBE02A2893
:1051400009D100F0E7F85BF8045B002D03D547F0C8
:1051500010076D42FFB2069801782E2914D1411C28
:1051600006910878A0F130010A2904D206A8FFF7B9
:10517000E7FE044605E02A2805D100F0CBF85BF8ED
:10518000044B002C00D500240699097800206829DA
:1051900018BF6C2903D1084606994A1C06920A23B7
:1051A00006990A78252A07F0100A71D0582A7AD071
:1051B000632A0ED0642A18BF692A79D06F2A6BD06F
:1051C000702A57D0732A20D0752A66D0782A6DD0DD
:1051D00072E0BAF1000F08D1202003E0464538BF45
:1051E0003070761C6D1E012DF8DA5BF8040B464515
:1051F00038BF3070711C20206D1E012DC0F28880D8
:10520000414538BF0870491CF6E75BF8049BB9F1CB
:10521000000F08BF0FF2A0194846FFF770FE012CDF
:1052200003DB8442C8BF04462046BAF1000F09D10F
:1052300004E046453CBF20213170761C29464D1EB6
:105240008842F6DB0022314608E041453CBF99F830
:1052500000300B70491C09F10109521C8242F4DB39
:105260002A46551E904253DA41453CBF20220A701F
:10527000491CF5E715F1010F04BF082547F00107A8
:105280005BF8042BFFB2029701940095102327E7E7
:1052900046451CD2252019E008236C287FF414AF62
:1052A0005BF8042B18E747F04007FFB21023F4E740
:1052B00047F00207FFB2F0E746453CBF25203070BB
:1052C00006980078761C20B1464500D23070761CD6
:1052D0000BE70698411E069107E7059830B1464551
:1052E00039BF00213170002008F8010C0498301AF1
:1052F00007B0BDE8F08FA0F130014FF0FF340A296C
:105300002546BFF41CAF06A8FFF71AFE054622E7A4
:105310000E46EAE60698411C069170470EB418B591
:105320000246154C03AB7F212046FFF7BAFE20460C
:10533000FDF78BFF11BC5DF810FBD0B102060F49E1
:1053400004D000F0FF00085C401C704710F47F4F51
:1053500004D0C0F30720085C0930704710F47F0FB9
:1053600004D0C0F30740085C11307047000E085CA1
:1053700019307047100B0108849C0020A00201081E
:105380000A205C207C202F0A00000000202F207CB7
:10539000205C202020202025642E25642E256420DA
:1053A0006275696C642025730A0000004E6F7620D8
:1053B0002035203230323000284E554C4C29000028
:1053C000303132333435363738396162636465667B
:1053D000000000003031323334353637383941423D
:1053E00043444546000000001CB5009113460446A6
:1053F0000FF24862642103F02DF9642802D3DFF82C
:1054000098058CE021460FF2546084E07FB502A835
:1054100001F01CFC012808BF0FF25C6059D001A804
:1054200001F023FC012808BF0FF2646051D0DFF8BF
:105430006C55DFF86C4505F23C7600F052F80198A7
:10544000029B0FF2646200F050F8642828BF2046E7
:105450003FD205F5DB6600F044F80198029B0FF29D
:10546000606200F042F8642828BF04F1280030D2BE
:1054700005F5C26600F035F80198029B0FF25862FC
:1054800000F033F8642828BF04F1500021D205F25F
:10549000746600F026F80198029B0FF25C6200F03F
:1054A00024F8642828BF04F1780012D205F5F465C9
:1054B00064212846FFF708F80198029B0FF2586212
:1054C00000906421284603F0C5F8642806D304F14F
:1054D000A400FFF723FF4FF0FF3000E0002004B0EE
:1054E00070BD64213046FEF7EFBF00906421304666
:1054F00003F0B0B81CB500920B460446DFF8A424B4
:10550000642103F0A7F8642802D30FF2286006E0B4
:1055100021460FF24060FFF701FF002016BDFFF7A4
:10552000FDFE4FF0FF3016BD1CB500920B46044641
:105530000FF23862642103F08DF8642802D30FF271
:105540003460ECE721460FF24C60E4E72DE9F847C0
:10555000D5B080460F461446DDF878A1DFF84894B0
:105560001D460AA849462C2200F046FC4FF48071E3
:1055700015A8FEF7A9FF142105A8FEF7A5FF0295BF
:1055800001970094534609F12C024FF4807115A83D
:1055900003F060F80026B0F5807F28BF0FF20C60A2
:1055A00006D203A801F07DFB012806D10FF21C6092
:1055B000FFF7B4FE4FF0FF3032E015A90FF2246080
:1055C000FFF7ACFE03990FF22860FFF7A7FE0398E0
:1055D00003F062F8074615A803F05EF804A905AACF
:1055E000019100920146039A3B4615A800F0F2F99A
:1055F0000FF2086705A80AAB825D394603EB460047
:1056000003F054F8761C142EF4D32C220AA9404639
:1056100000F0F2FB414609F15C00FFF77FFE00203D
:1056200056B0BDE8F0872DE9FE4F01A801F0FAFA67
:105630000025012808BF0FF2CC5013D0684601F0B6
:1056400005FB012808BF0FF230400BD0D34E009A63
:10565000019906F59060FFF7C7FE10F1010F06D122
:105660000FF2B450FFF75AFE4FF0FF3039E0DFF889
:105670003CB30FF2F8590FF2DC5A5846FFF74EFED2
:1056800040F25B78424606F590610FF2AC50FFF7AE
:1056900045FE6D1CEFB2032239460BF12C00FFF7DB
:1056A0003DFE06F1700003F060F8424606F5906199
:1056B00006F1700003F01AF804000ED15046FFF70F
:1056C0002DFE4846FFF72AFE00F00EF8040004D035
:1056D00006F1700003F03BF800E00CB1032FD8DBBB
:1056E0002046BDE8FE8F00002DE9F047A2B0DFF8AC
:1056F000C0820CA84146582200F07EFBDFF89C9245
:105700004FF40077029709F180050195009709F59C
:10571000207341F2883209F1700109F1080003F0A9
:1057200070F804A801F092FA0024012808BF0FF2D3
:1057300048300CD005A801F098FA012805D09D4802
:10574000006806A901F08DFB30B100BFD0A0FFF7C3
:10575000E5FD4FF0FF3046E00D2108A8FEF7B4FE4E
:105760009DF81D009DF81C100390029109F2E4467B
:105770009DF81B009DF81A10019000919DF81930BA
:105780009DF818200FF2045108A802F08FFFFDF7D2
:105790002DFE8246524608A93046FFF7ABFE09F5BA
:1057A000A965049A05992846FFF7BEFE08A800904F
:1057B00009F2AC57059A049953463846FFF7C6FEDE
:1057C0000F961C951F97641CE7B20322394608F117
:1057D0005800FFF7A3FD0CA909F1080003F02AFA0D
:1057E00008B1032FEFDB22B0BDE8F087F8B584B035
:1057F000012100228DF800108DF802208DF8011093
:10580000664C6D4D0294FDF779FE2070FDF780FE29
:105810006070FDF786FEA070684890F90010E17096
:1058200090F901002071FDF783FE642190FBF1F0F7
:105830006071FDF77DFE642290FBF2F2642101FBB2
:105840001200A0716A460720039004F5F46104F188
:10585000080003F08FFA04000BD0FDF75CFE06464B
:10586000FDF756FE0746FDF749FE014633463A4628
:105870000EE005F13000FFF751FDFDF74CFE064646
:10588000FDF746FE0746FDF739FE33463A46014628
:105890002846FFF743FD204605B0F0BD38B584B07B
:1058A00001218DF8001000228DF8011003918DF870
:1058B00002206A4639480FF2E4350170029000F286
:1058C0003C71083003F056FA040004BF3C48FFF76F
:1058D00025FDFDF713FE01462846FFF71FFD204674
:1058E00005B030BDF8B52D4C364B0FF2E4360FF253
:1058F000C03704F5C26500F021F80028294614BF1E
:1059000038463046FFF70AFD04F5DB652E4B00F004
:1059100015F80028294614BF38463046FFF7FEFC2C
:1059200004F27465294B00F009F80400294614BFFD
:1059300038463046FFF7F2FC2046F2BD00222946E9
:1059400004F1080003F00CBAC821214803F0F2B8B2
:1059500010B51F4803F09BFA002460B900F00DF861
:10596000E1A0FFF7DBFCFFF75EFE10B9FFF7BAFF1F
:1059700001E04FF0FF34204610BD10B5074CE16D3B
:10598000086818B104F1080003F063FAE06DBDE89F
:10599000104002F0DCBE00009C0E0108D481002003
:1059A00078040108000D010824070108AC0901086A
:1059B00030090108449F0020BC0A01086C9B0020AC
:1059C000C40D01089D01010819020108E101010847
:1059D000DC8100202DE9FF4105460E46174698461A
:1059E000684603F060FA042003F056FA01460122EB
:1059F000684603F079FA040019D1424639466846F0
:105A000003F08FFA040012D132462946684603F0AB
:105A1000E1FA04000BD10A9D2946684603F0EBFA2F
:105A2000040004D10B9E284602F036FE3060684622
:105A300003F03FFA204604B0BDE8F08125732E69DB
:105A40006F742D61732D6D7174742E25732E616CBE
:105A50006979756E63732E636F6D00004D515454F8
:105A60002073657276657220616464726573732059
:105A70006973203A25730A0067657450726F647504
:105A800063744B6579206661696C65640A00000087
:105A90006765744465766963654E616D652066610E
:105AA000696C65640A0000002F25732F25732F751C
:105AB0007365722F74656D70416C61726D000000CA
:105AC0002F25732F25732F757365722F636C656196
:105AD00072416C61726D00002F25732F25732F7535
