:100C10003C473EBBB6D3ADCAB9D3C3003030003079
:100C2000310030320030330030340030350030369F
:0E0C300000303700303800303900313000001D
:06000E000157000156003D
:1009B600E4F5467592FFF591C294C295C296C29728
:1009C600120CDA120C3E120B63120C6AE47857F61C
:1009D6007BFF7A0C7910120C917857E61460FA2492
:1009E600F1601824DF60F224317020785776011206
:1009F6000A76EF70E47857763180DE120006785971
:100A0600EFF612057BE47857F680CEE47857F68049
:010A1600C817
:100CDA00B2C2120D04B2C2120D04B2C2120D04B293
:0C0CEA00C2120D04B2C2120D04B2C222EC
:100C3E007580FFE4F59075A0FF75B0FF75C0FF538A
:100C4E008E7F438901F58A758C28C28DD28CD2A9EC
:0C0C5E00C2C3D289D2A8D2AF75C13D221A
:0A0D110000007F057E49DEFEDFFCD6
:010D1B0022B5
:080CB6008F518E508D4F8C4EC2
:100CBE00E4F552F553F554F555784E74FF12046968
:0B0CCE00EC4D4E4F6005120D1180EE42
:010CD90022F8
:0C0D04007F117ED07D1BDDFEDEFCDFFADF
:010D100022C0
:03000300020BA449
:100BA400C0E0C0F0C083C082C0D075D000C000C017
:100BB40001C002C003C004C005C006C00712075C20
:100BC400D007D006D005D004D003D002D001D00085
:0B0BD400D0D0D082D083D0F0D0E0322F
:10057B008F47EF700F7556017BFF7A0C791C120CAD
:10058B0091C2C222E556640160030206B1F556D250
:10059B00C2E547120487063801064202064C0406E0
:1005AB005614066015066A16067417067E1806881A
:1005BB001906981A06A81B06A81C06A81D06A81E35
:1005CB0006A81F06A82006A82106A82206A823060F
:1005DB00A82406A82506A82606A82706A82806A844
:1005EB002906A82A06A82B06A82C06A82D06A82E95
:1005FB0006A82F06A83006A83106A83206A833068F
:10060B00A83406A83506A83606A83706A83806A8C3
:10061B003906A83A06A83B06A83C06A83D06A83E04
:10062B0006A83F06A84006A841000006B1D2977B5A
:10063B00FF7A0C791F806CC2977BFF7A0C79228032
:10064B0062D2967BFF7A0C79258058C2967BFF7A13
:10065B000C7928804ED2957BFF7A0C792B8044C283
:10066B00957BFF7A0C792E803AD2947BFF7A0C79AA
:10067B00318030C2947BFF7A0C79348026D297D2AA
:10068B0096D295D2947BFF7A0C79378016C297C29B
:10069B0096C295C2947BFF7A0C793A80067BFF7ADF
:0706AB000C793D120C9122B5
:03000B00020D32B1
:0A0D3200758A00758C2875C13D32EA
:10002600686569206A6920676500000000000000B5
:10003600000000006A69616E672064692079752096
:100046007A6869000000000074692067616F207992
:1000560075207A6869000000000000007869616E0A
:10006600207368692077656E2064750000000000C3
:100076007869616E20736869207368692064750009
:10008600000000007869616E2073686920677561F9
:100096006E67207169616E677175616E2062752089
:1000A6007869616E207368690000000078692070C5
:1000B600696E6700000000000000000000000000FC
:1000C6006775616E206269206B6F6E672074696167
:1000D6006F0000007175616E206275206461206B8F
:1000E60061690000000000007175616E2062752074
:1000F6006775616E20626900000000000000000064
:1001060000000000000000000000000000000000E9
:1001160000000000000000000000000000000000D9
:1001260000000000000000000000000000000000C9
:1001360000000000000000000000000000000000B9
:100406000000000000000000000102041415161789
:1004160018191A1B1C1D1E1F2021222324252627DE
:1004260028292A2B2C2D2E2F3031323334353637CE
:0A04360038393A3B3C3D3E3F40415F
:100B6300D2B57F057E007D007C00120CB6C2B57F36
:100B7300057E007D007C00120CB6D2B57F057E0099
:100B83007D007C00120CB6C2A17F057E007D007C37
:100B930000120CB6D2A17F057E007D007C00020C02
:010BA300B69B
:1007FB007F06120D277D357F17120D1C7F0A7E0099
:10080B007D007C00120CB67F06120D277D037F89BD
:10081B00120D1C7F057E007D007C00120CB67D4303
:10082B007FCF120D1C7F057E007D007C00120CB665
:10083B007D027FCB120D1C7D0A7F11120D1CE4FD76
:10084B007F1E120D1C7D3F7F19120D1C7D487F1BD7
:10085B00120D1C7D1F7F1D120D1C7F0A7E007D005B
:10086B007C00120CB67D047FCD120D1C7F057E0023
:10087B007D007C00120CB6E4FD7FB9120D1C7D4F80
:0C088B007FCF120D1C7DFF7F6F020D1C43
:100A17001207FBE4FD7FBD120D1C7D487F17120DE9
:100A27001C7F0A7E007D007C00120CB67D807F3C17
:100A3700120D1C7D077F3E120D1C7DFF7F38120DA6
:100A47001C7D077F3A120D1CE4FD7F40120D1C7DB3
:100A5700087F42120D1CE4FD7F44120D1C7D087FA8
:0F0A670046120D1C7F017E007D007C00020CB644
:10075C00E4F545C2A87F2B120D277858A607E4FDB7
:10076C007F29120D1CE4FD7F02120D1C7858E63017
:10077C00E4377FB2120D27EF6421702D7FBF120D6D
:10078C0027EF643570237FBA120D278F457E00D377
:10079C00EF9400748094804010D3EF940474809490
:1007AC0080500678577610800478577611E4FD7FD8
:1007BC002B120D1CE4FD7F1C120D1CE4FD7F291275
:1007CC000D1CE4FD7F02120D1CE4FD7F2B120D1C91
:1007DC00E4FD7FBA120D1CE4FD7FBC120D1C7D01E3
:0E07EC007F08120D1CE4FD7F08120D1CD2A820
:0107FA0022DC
:100A7600E4F547F548F547C3E54794057480948047
:100A8600504012001C7F327E007D007C00120CB6A6
:100A96001206B2EF700280117F0A7E007D007C0094
:100AA600120CB6120897EF7010120B637F327E009D
:100AB6007D007C00120CB680057548018004054750
:040AC60080B5AF4800
:010ACA002209
:100BDF00E4F54DF54CC3E54C940A74809480501E97
:100BEF007FB2120D27EF64217005754D01800F7FC5
:100BFF000A7E007D007C00120CB6054C80D7AF4DED
:010C0F0022C2
:03001C00020A17BE
:10089700C2A87D437F35120D1C7D097F1C120D1CDC
:1008A7007D207FBD120D1C7D017F08120D1C7F016D
:1008B7007E007D007C00120CB6E4FD7F08120D1C43
:1008C7007F017E007D007C00120CB6120BDFEF70FB
:1008D70002FF227D0B7F1C120D1C7DFF7FB2120DC4
:1008E7001C7F017E007D007C00120CB67D067F37E1
:1008F700120D1C7F017E007D007C00120CB67D0668
:100907007F37120D1C7F057E007D007C00120CB620
:100917007D107F29120D1CE4FD7FBD120D1CD2A88E
:030927007F01222B
:1006B200754A01E4F549C3E5499432748094804057
:1006C20003020759120BDFEF7005F54A020759E5DD
:1006D2004990040E93FD7FC1120D1CE4FD7FC312ED
:1006E2000D1C7D047F08120D1C7F017E007D007CA5
:1006F20000120CB6E4FD7F08120D1C7F017E007D06
:10070200007C00120CB6E4F54BC3E54B94147480E4
:100712009480502975F014E549A42426F582E5F069
:100722003400F583E582254BF582E43583F583E4D5
:1007320093FD60097F05120D1C054B80CCAD4B7FEC
:10074200B9120D1C7DFF7FB2120D1C7D047F371282
:090752000D1C05490206B8AF4A6E
:01075B00227B
:050006007FC5020D277B
:0B0D1C00908100EFF0908000EDF022CD
:0B0D2700908100EFF0908000E0FF22C0
:07001400021125800110001C
:100C6A00759850758920AE11AF12AB07AA06E4F940
:100C7A00F8FF7EE1FDFC120B1F1204598F8B8F8D3A
:070C8A00D28ED2ACD2AF22E2
:0E0CF600C2ACC2998F993099FDC299D2AC223E
:100C91008B488A49894AAB48AA49A94A120440604B
:100CA10013054AE54A7002054914F9120440FF127E
:050CB1000CF680E222B8
:03002300020ACB03
:100ACB00C0E0C0D075D008309845C298741325107B
:100ADB00F8A6990510C3E5109431748094804003F7
:100AEB00751000C3E5109403748094804021741337
:100AFB002510F8E664F8701774122510F8E664F800
:100B0B00700D74112510F8E664F8700375C760D08A
:040B1B00D0D0E03224
:0300000002092AC8
:0C092A00787FE4F6D8FD75815902097150
:10044000BB010689828A83E0225002E722BBFE02BA
:09045000E32289828A83E49322ED
:100B1F00C2D5E830E70FB2D5E4C39BFBE49AFAE401
:100B2F0099F9E498F8EC30E717B2D5120B55120487
:100B3F00E9E4C39BFBE49AFAE499F9E498F880039B
:100B4F001204E930D50DE4C39FFFE49EFEE49DFD42
:040B5F00E49CFC22F4
:0E045900C3E49FFFE49EFEE49DFDE49CFC22B4
:100467007401FF3395E0FEFDFC080808E6CF2FF680
:1004770018E6CE3EF618E6CD3DF618E6CC3CF62259
:10048700D083D082F8E4937012740193700DA3A304
:1004970093F8740193F5828883E473740293686018
:0604A700EFA3A3A380DF18
:100936000209B6E493A3F8E493A34003F68001F218
:1009460008DFF48029E493A3F85407240CC8C333C2
:10095600C4540F4420C8834004F456800146F6DF91
:10096600E4800B010204081020408090000EE47E13
:10097600019360BCA3FF543F30E509541FFEE49386
:10098600A360010ECF54C025E060A840B8E493A34D
:10099600FAE493A3F8E493A3C8C582C8CAC583CA78
:1009A600F0A3C8C582C8CAC583CADFE9DEE780BE30
:01001B0000E4
:1004AD0075F008758200EF2FFFEE33FECD33CDCC06
:1004BD0033CCC58233C5829BED9AEC99E582984089
:1004CD000CF582EE9BFEED9AFDEC99FC0FD5F0D666
:1004DD00E4CEFBE4CDFAE4CCF9A88222B800C1B990
:1004ED000059BA002DEC8BF084CFCECDFCE5F0CBCE
:1004FD00F97818EF2FFFEE33FEED33FDEC33FCEB07
:10050D0033FB10D703994004EB99FB0FD8E5E4F9C1
:10051D00FA227818EF2FFFEE33FEED33FDEC33FCAE
:10052D00C933C910D7059BE99A4007EC9BFCE99AA2
:10053D00F90FD8E0E4C9FAE4CCFB2275F010EF2FE7
:10054D00FFEE33FEED33FDCC33CCC833C810D707E7
:10055D009BEC9AE899400AED9BFDEC9AFCE899F822
:0E056D000FD5F0DAE4CDFBE4CCFAE4C8F922B5
:00000001FF
